{"abi":[{"type":"constructor","inputs":[{"name":"verifierAddress","type":"address","internalType":"address"}],"stateMutability":"nonpayable"},{"type":"function","name":"CONTEXT_ID_SIGNAL_INDEX","inputs":[],"outputs":[{"name":"","type":"uint256","internalType":"uint256"}],"stateMutability":"view"},{"type":"function","name":"DECISION_SIGNAL_INDEX","inputs":[],"outputs":[{"name":"","type":"uint256","internalType":"uint256"}],"stateMutability":"view"},{"type":"function","name":"POLICY_HASH_SIGNAL_INDEX","inputs":[],"outputs":[{"name":"","type":"uint256","internalType":"uint256"}],"stateMutability":"view"},{"type":"function","name":"authorizedSubmitters","inputs":[{"name":"","type":"address","internalType":"address"}],"outputs":[{"name":"","type":"bool","internalType":"bool"}],"stateMutability":"view"},{"type":"function","name":"decisions","inputs":[{"name":"","type":"bytes32","internalType":"bytes32"}],"outputs":[{"name":"decision","type":"uint8","internalType":"uint8"},{"name":"policyHash","type":"bytes32","internalType":"bytes32"},{"name":"timestamp","type":"uint64","internalType":"uint64"},{"name":"submitter","type":"address","internalType":"address"}],"stateMutability":"view"},{"type":"function","name":"getDecision","inputs":[{"name":"subjectHash","type":"bytes32","internalType":"bytes32"},{"name":"context","type":"bytes32","internalType":"bytes32"},{"name":"policyHash","type":"bytes32","internalType":"bytes32"}],"outputs":[{"name":"","type":"tuple","internalType":"struct DecisionRegistry.DecisionRecord","components":[{"name":"decision","type":"uint8","internalType":"uint8"},{"name":"policyHash","type":"bytes32","internalType":"bytes32"},{"name":"timestamp","type":"uint64","internalType":"uint64"},{"name":"submitter","type":"address","internalType":"address"}]}],"stateMutability":"view"},{"type":"function","name":"getDecisionKey","inputs":[{"name":"subjectHash","type":"bytes32","internalType":"bytes32"},{"name":"context","type":"bytes32","internalType":"bytes32"},{"name":"policyHash","type":"bytes32","internalType":"bytes32"}],"outputs":[{"name":"","type":"bytes32","internalType":"bytes32"}],"stateMutability":"pure"},{"type":"function","name":"owner","inputs":[],"outputs":[{"name":"","type":"address","internalType":"address"}],"stateMutability":"view"},{"type":"function","name":"restricted","inputs":[],"outputs":[{"name":"","type":"bool","internalType":"bool"}],"stateMutability":"view"},{"type":"function","name":"setAuthorizedSubmitter","inputs":[{"name":"submitter","type":"address","internalType":"address"},{"name":"allowed","type":"bool","internalType":"bool"}],"outputs":[],"stateMutability":"nonpayable"},{"type":"function","name":"setRestricted","inputs":[{"name":"value","type":"bool","internalType":"bool"}],"outputs":[],"stateMutability":"nonpayable"},{"type":"function","name":"setVerifier","inputs":[{"name":"verifierAddress","type":"address","internalType":"address"}],"outputs":[],"stateMutability":"nonpayable"},{"type":"function","name":"submitDecision","inputs":[{"name":"subjectHash","type":"bytes32","internalType":"bytes32"},{"name":"context","type":"bytes32","internalType":"bytes32"},{"name":"decision","type":"uint8","internalType":"uint8"},{"name":"policyHash","type":"bytes32","internalType":"bytes32"},{"name":"a","type":"uint256[2]","internalType":"uint256[2]"},{"name":"b","type":"uint256[2][2]","internalType":"uint256[2][2]"},{"name":"c","type":"uint256[2]","internalType":"uint256[2]"},{"name":"publicSignals","type":"uint256[3]","internalType":"uint256[3]"}],"outputs":[],"stateMutability":"nonpayable"},{"type":"function","name":"verifier","inputs":[],"outputs":[{"name":"","type":"address","internalType":"contract IVerifier"}],"stateMutability":"view"},{"type":"event","name":"DecisionSubmitted","inputs":[{"name":"subjectHash","type":"bytes32","indexed":true,"internalType":"bytes32"},{"name":"context","type":"bytes32","indexed":true,"internalType":"bytes32"},{"name":"decision","type":"uint8","indexed":false,"internalType":"uint8"},{"name":"policyHash","type":"bytes32","indexed":false,"internalType":"bytes32"},{"name":"timestamp","type":"uint64","indexed":false,"internalType":"uint64"}],"anonymous":false}],"bytecode":{"object":"0x608060405234801561000f575f80fd5b50604051610b93380380610b9383398101604081905261002e916100ad565b6001600160a01b03811661007b5760405162461bcd60e51b815260206004820152601060248201526f24b73b30b634b2103b32b934b334b2b960811b604482015260640160405180910390fd5b5f8054336001600160a01b031991821617909155600180549091166001600160a01b03929092169190911790556100da565b5f602082840312156100bd575f80fd5b81516001600160a01b03811681146100d3575f80fd5b9392505050565b610aac806100e75f395ff3fe608060405234801561000f575f80fd5b50600436106100e5575f3560e01c806363553a81116100885780637f6e9d4b116100635780637f6e9d4b1461026b5780638da5cb5b1461028d578063ac4ba0251461029f578063da49e9b4146102b2575f80fd5b806363553a81146102395780637072c6b11461024157806378329e8914610264575f80fd5b80632b7ac3f3116100c35780632b7ac3f3146101e05780635197a0d31461020b5780635437988d1461021e57806359e90c1f14610231575f80fd5b806314f4307e146100e95780631afd614a1461014157806324daddc5146101cb575b5f80fd5b61012e6100f7366004610865565b6040805160208082019590955280820193909352606080840192909252805180840390920182526080909201909152805191012090565b6040519081526020015b60405180910390f35b61018f61014f36600461088e565b60036020525f908152604090208054600182015460029092015460ff909116919067ffffffffffffffff811690600160401b90046001600160a01b031684565b6040805160ff9095168552602085019390935267ffffffffffffffff909116918301919091526001600160a01b03166060820152608001610138565b6101de6101d93660046108b5565b6103b1565b005b6001546101f3906001600160a01b031681565b6040516001600160a01b039091168152602001610138565b6101de6102193660046108f2565b610400565b6101de61022c366004610927565b610453565b61012e600181565b61012e600281565b5f5461025490600160a01b900460ff1681565b6040519015158152602001610138565b61012e5f81565b610254610279366004610927565b60026020525f908152604090205460ff1681565b5f546101f3906001600160a01b031681565b6101de6102ad366004610956565b6104e7565b6103686102c0366004610865565b60408051608080820183525f80835260208084018290528385018290526060938401829052845180820198909852878501969096528683019490945282518087039092018252850180835281519185019190912083526003909352908190206101008401909152805460ff168252600181015460a08401526002015467ffffffffffffffff811660c0840152600160401b90046001600160a01b031660e09092019190915290565b6040516101389190815160ff1681526020808301519082015260408083015167ffffffffffffffff16908201526060918201516001600160a01b03169181019190915260800190565b5f546001600160a01b031633146103e35760405162461bcd60e51b81526004016103da906109ec565b60405180910390fd5b5f8054911515600160a01b0260ff60a01b19909216919091179055565b5f546001600160a01b031633146104295760405162461bcd60e51b81526004016103da906109ec565b6001600160a01b03919091165f908152600260205260409020805460ff1916911515919091179055565b5f546001600160a01b0316331461047c5760405162461bcd60e51b81526004016103da906109ec565b6001600160a01b0381166104c55760405162461bcd60e51b815260206004820152601060248201526f24b73b30b634b2103b32b934b334b2b960811b60448201526064016103da565b600180546001600160a01b0319166001600160a01b0392909216919091179055565b5f54600160a01b900460ff161561054757335f9081526002602052604090205460ff166105475760405162461bcd60e51b815260206004820152600e60248201526d139bdd08185d5d1a1bdc9a5e995960921b60448201526064016103da565b8761058a5760405162461bcd60e51b8152602060048201526013602482015272092dcecc2d8d2c840e6eac4d4cac6e890c2e6d606b1b60448201526064016103da565b846105cc5760405162461bcd60e51b8152602060048201526012602482015271092dcecc2d8d2c840e0ded8d2c6f290c2e6d60731b60448201526064016103da565b6040805160208082018b90528183018a90526060808301899052835180840390910181526080909201909252805191012081358087146106455760405162461bcd60e51b81526020600482015260146024820152730a0ded8d2c6f240d0c2e6d040dad2e6dac2e8c6d60631b60448201526064016103da565b6020830135891461068e5760405162461bcd60e51b8152602060048201526013602482015272086dedce8caf0e840d2c840dad2e6dac2e8c6d606b1b60448201526064016103da565b604083013560ff8916146106d85760405162461bcd60e51b8152602060048201526011602482015270088cac6d2e6d2dedc40dad2e6dac2e8c6d607b1b60448201526064016103da565b6001546040516308a3cff560e11b81525f916001600160a01b0316906311479fea9061070e908a908a908a908a90600401610a10565b602060405180830381865afa158015610729573d5f803e3d5ffd5b505050506040513d601f19601f8201168201806040525081019061074d9190610a5b565b90508061078c5760405162461bcd60e51b815260206004820152600d60248201526c24b73b30b634b210383937b7b360991b60448201526064016103da565b6040805160808101825260ff8b811680835260208084018d815267ffffffffffffffff428116868801818152336060808a019182525f8e8152600388528b902099518a54991660ff1990991698909817895593516001890155516002909701805493516001600160a01b0316600160401b026001600160e01b03199094169790921696909617919091179055845191825281018c9052928301919091528b918d917fb44d430aefb397ced4b982107652192db1dc0bfb7f75cdea8ccaa0645e83c2d4910160405180910390a35050505050505050505050565b5f805f60608486031215610877575f80fd5b505081359360208301359350604090920135919050565b5f6020828403121561089e575f80fd5b5035919050565b80151581146108b2575f80fd5b50565b5f602082840312156108c5575f80fd5b81356108d0816108a5565b9392505050565b80356001600160a01b03811681146108ed575f80fd5b919050565b5f8060408385031215610903575f80fd5b61090c836108d7565b9150602083013561091c816108a5565b809150509250929050565b5f60208284031215610937575f80fd5b6108d0826108d7565b8060408101831015610950575f80fd5b92915050565b5f805f805f805f806101e0808a8c03121561096f575f80fd5b8935985060208a0135975060408a013560ff8116811461098d575f80fd5b965060608a013595506109a38b60808c01610940565b94506101408a018b8111156109b6575f80fd5b60c08b0194506109c68c82610940565b9350508a818b0111156109d7575f80fd5b50610180890190509295985092959890939650565b6020808252600a908201526927b7363c9037bbb732b960b11b604082015260600190565b6101608101604080878437808301865f5b6002811015610a3e57838284379183019190830190600101610a21565b505050808560c08501375060608361010084013795945050505050565b5f60208284031215610a6b575f80fd5b81516108d0816108a556fea26469706673582212207a45128683faea269e84d3c7365e81d0887895870a59da596a3cac6cc9bdc1d464736f6c63430008140033","linkReferences":{}},"methodIdentifiers":{"CONTEXT_ID_SIGNAL_INDEX()":"59e90c1f","DECISION_SIGNAL_INDEX()":"63553a81","POLICY_HASH_SIGNAL_INDEX()":"78329e89","authorizedSubmitters(address)":"7f6e9d4b","decisions(bytes32)":"1afd614a","getDecision(bytes32,bytes32,bytes32)":"da49e9b4","getDecisionKey(bytes32,bytes32,bytes32)":"14f4307e","owner()":"8da5cb5b","restricted()":"7072c6b1","setAuthorizedSubmitter(address,bool)":"5197a0d3","setRestricted(bool)":"24daddc5","setVerifier(address)":"5437988d","submitDecision(bytes32,bytes32,uint8,bytes32,uint256[2],uint256[2][2],uint256[2],uint256[3])":"ac4ba025","verifier()":"2b7ac3f3"},"id":0}